:1000000009308A00132900000C00D732EC31EF369A
:100010006510F437A029E9366F3700015039E5390A
:100020007310533A6139F4100000C720CD22A02785
:10003000D622D2100001D3316F39651DA0126400A1
:100040005510F437EF35A0396F10EC37EE3321003F
:100050005334EF3B6937671074346510F332F11095
:100060000001CE377710693AA739A029E9366F37F2
:100070002100CE377710693AA739A02CEF3A21003A
:10008000CC32F6326C1DA01264005510E7377410A4
:10009000693A2039E933683A2100493AA739A03A48
:1000A0007210F43A7237211D29004537F43272106C
:1000B0006110F630EC3A6500F437A0306432203A33
:1000C0006F1074346500F332F13A6537E332210082
:1000D0005039E53973106F37E510201D290054346D
:1000E0006510E3377239E5317410F332711D000089
:1000F000D33084008313000803198B280630F800DE
:10010000F701F70B8128F80B80287B30F700F70BFD
:100110008728800B7E28080083165A18932883129C
:100120000612952883168312061683160612DA180D
:100130009D28831286129F288316831286168316A3
:1001400086125A19A72883120613A9288316831228
:10015000061783160613DA19B12883128613B328FB
:1001600083168312861783168613000083120614E3
:10017000831606100230F700F70BBC28BF280000DA
:100180008312061083160610831208008316DB0103
:10019000061600308312061A01308316DB04861619
:1001A00000308312861A0130F7000310F70D77082C
:1001B0008316DB04061700308312061B0130F7009C
:1001C000F70DF70DFC30F70577088316DB0486176B
:1001D00000308312861B0130F700F70DF70DF70D85
:1001E000F830F70577088316DB045B08F800831204
:1001F00008008316061086100611831286108316D7
:10020000861006168616061786178312061583169D
:1002100006110000831206148316061000008312D4
:10022000C62078088316DA0083120610831606109B
:10023000000083120614831606101E291F290000D1
:100240008312C62078088316D900831206108316FD
:10025000061006128612061386135A0EF700F030A7
:10026000F70577085904F8007808D900D91B012947
:10027000D708031D3F298312861041298316831254
:100280008614831686100000831206118316061149
:1002900000008312061083160610580ED9000F3086
:1002A000D9055908DA0083128C20831658080F39B3
:1002B000D900DA0083128C20080028308316A000B1
:1002C0000C30A1000130A2000630A30083120610FA
:1002D0008316061083128610831686108312061169
:1002E0008316061106128612061386130610861050
:1002F00006110F30D300831278200130FD007D08F5
:10030000033C031C8F2903308316DA0083128C20F0
:1003100005308316D30083127820FD0A7F2902302E
:100320008316DA0083128C2005308316D3008312E3
:100330007820FD017D08033C031CAC29A0307D071B
:10034000840083130008FE008316D7017E08D800BE
:100350008312F920FD0A9A298A150A125629831652
:100360005308F80152020318B8295208F700C429AB
:10037000F7010830D400D20DF70D530877020318A7
:10038000F700F80DD40BBB29831208006A08831606
:10039000D2000A30D3008312AF217708FD006A082B
:1003A0008316D2000A30D3008312AF217808FE00F2
:1003B0006C307D078400831300088316A000880139
:1003C00020088312880064308316D30083127820BB
:1003D0007612760883168700831207128316051299
:1003E0008312051283168512831285128316091053
:1003F000831209108316891083128910831609113C
:100400008312091183168611831286116A08083C2B
:100410000318802A7E08013A0319152A033A0319A2
:10042000392A013A03195D2A802A76127608831642
:10043000870083120712831605128312051683168E
:1004400085128312851683160910831209108316EC
:1004500089108312891083160911831209118316DA
:1004600086118312861164308316D300831278209C
:10047000802A761276088316870083120716831661
:1004800005128312051683168512831285128316B0
:100490000910831209148316891083128914831694
:1004A000091183120911831686118312861564308F
:1004B0008316D30083127820802A7612760883165A
:1004C00087008312071683160512831205168316FA
:1004D0008512831285168316091083120914831658
:1004E000891083128910831609118312091183164A
:1004F00086118312861564308316D3008312782008
:100500000800FD017D081F3C031C8D2A26307D0755
:10051000840083138001FD0A822A8A150A125F294A
:10052000FD017D081F3C031C9C2A46307D0784008A
:1005300083138001FD0A912A0800F801F901F701EF
:10054000FA0183165F08031DA82A5E080319C22A50
:100550001030E0000310DC0DDD0DF70DFA0D5F0823
:100560007A02031DB52A5E087702031CBE2A5E08C4
:10057000F702031CFA035F08FA020314F80DF90DE1
:10058000E00BAA2A83120800FD017D081F3C031C12
:10059000702B26307D07F800FA010318FA0A780854
:1005A0008316A0007A08A100831225088316A500EF
:1005B000831224088316A400831223088316A30041
:1005C000831222088316A2004130A900C630A80079
:1005D0004E30A7006D30A6002030AE00AA01AB015E
:1005E000AC01AD012508FA002408F9002308F80041
:1005F0002208F7000310771C0B2B2608AA072708F0
:100600000318270FAB0728080318280FAC07290881
:100610000318290FAD07AD0CAC0CAB0CAA0CFA0CEF
:10062000F90CF80CF70CAE0BFA2A7A08A500790839
:10063000A4007808A3007708A200393022078312AB
:10064000A200831623088312A30030300318313030
:10065000A307831624088312A40000300318013076
:10066000A407831625088312A50000300318013063
:10067000A5072408F7002508F800F901FA01250864
:100680008316A4007708A3002408DD002308DC00FB
:100690007F30DF00FF30DE0083129D227708F800F4
:1006A0007A08F90079088316A3007808A2000330BD
:1006B000A205A30101302207F8002308FA0003185D
:1006C000FA0A7808A2007A08A3002008840083139D
:1006D00021188317220880000230FD078312C52AE3
:1006E0008A150A1265298316540B772B7A2B403012
:1006F000D5007B2BD50101305302D5075508803832
:10070000D600D7015608D8008312F92008008316B6
:100710005208073A83120319972B0B3A03199E2BA1
:10072000063A0319AA2B023A0319B22BB92B01304E
:100730008316D300D40083127323C02B8316D701F2
:100740000130D8008312F92002308316D3008312BF
:100750007820C02B01308316D3000230D4008312DE
:100760007323C02B8316D7011030D8008312F920D1
:10077000C02B01308316D7005208D8008312F9200D
:1007800008000B088316CC0083128B138316031703
:100790008C170C14000000000313CC1FD22B831203
:1007A0008B178316831203170C087F390319332C18
:1007B00083160313CC00831203170D08831603134B
:1007C000CD00831203170F0883160313CE004C08C5
:1007D000D2008312872383164D08831203178D00DE
:1007E000831603134E08831203178F0003130B089D
:1007F0008316CF0083128B13831603178C170C14E8
:10080000000000000313CF1F082C83128B178316E0
:10081000831203170C0D0E0D7F390319332C831629
:100820000313CC00831203170D0883160313CD00A6
:10083000831203170F0883160313CE004C08D2004F
:100840008312872383164D08831203178D008316A6
:1008500003134E08831203178F008D0A03198F0AA2
:100860000313C12B031703130800043003178D0073
:1008700000308F000313C12332308316D30083125C
:100880007820080003308316DB02031C512CDB3078
:100890008400831300080319512C4F2C4F2C800B1C
:1008A0004E2C8312080083108316DD010F30DC000C
:1008B0004230DB004030DA00E101E0015008DF00A7
:1008C0004F08DE008318672CE23084008313F701A1
:1008D000F801F901FA01E201E301E401E50161082F
:1008E00060045F045E040319A52C2030E6000310A9
:1008F000DA0DDB0DDC0DDD0DE20DE30DE40DE50D94
:1009000061086502031D8E2C60086402031D8E2C95
:100910005F086302031D8E2C5E086202031C9F2C7D
:100920005E08E2025F08031C5F0FE3026008031C1D
:10093000600FE4026108031C610FE5020314F70D68
:10094000F80DF90DFA0DE60B772C62088000840A89
:1009500063088000840A64088000840A65088000B7
:100960007808D3007708D2000310530CD500520C3E
:10097000D4005008DB004F08DA00DD015108DC002C
:100980001030DE00F701FA01DB0CDA0C031CCE2C70
:100990005C08F7070318FA0A5D08FA07FA0CF70C67
:1009A000F90CF80CDE0BC42C7908DB007808DA00AF
:1009B0005B08DD005A08DC000330DF00E830DE00B1
:1009C00083129D2279088316D7007808D600D901B2
:1009D000D80159085702031C212D031DF32C56087A
:1009E00058020318212D881383128817831655087F
:1009F000DA00DA0ADA030319032DFF30DB00831271
:100A000042248316FA2C5408DB00831242248316F6
:100A100088138312881383165508DA00DA0ADA037A
:100A20000319182DFF30DB008312422483160F2D8B
:100A30005408DB00831242248316D80A0319D90A0A
:100A4000E92C8312080093308316A0000230A10025
:100A50000F30A2000330A300DB30A4000330A50058
:100A60009330A6000230A7000F30A8000330A90081
:100A7000DB30AA000330AB00B030AC000430AD0076
:100A8000DB30AE000330AF009630B000B100B200F2
:100A9000B300B400B5002C30B6009630B700831216
:100AA000352401308316D300D4008312732305301C
:100AB00003178D0000308F000313C123023083160B
:100AC000D300D400831273230E3003178D0000303F
:100AD0008F000313C123FD017D08073C031C912DEA
:100AE00003107D0DA03E84008313840A0008831642
:100AF000B90084030008B800B0307D078400831378
:100B00000008BA003908D0003808CF003A08D100F0
:100B10008312532446308316D30083127820FD0AB3
:100B20006C2D46308316D30083127820F616760893
:100B3000831687008312871A9F2D0130E700E7088C
:100B400003196B2D8A150A126829FD017D086602BA
:100B5000031C222E26307D078400831301300002FF
:100B6000FC3E0318202E043E232E01308316D000B5
:100B70000630CF00B830D1008312532483160510FD
:100B8000831205140430FE00FA308316D30083125A
:100B90007820FE0BC42D8316051083120510202E1D
:100BA00001308316D0004A30CF00B830D100831214
:100BB000532483168511831285150430FE00FA3004
:100BC0008316D30083127820FE0BDF2D8316851148
:100BD00083128511202E01308316D0005D30CF00A6
:100BE000B830D100831253248316051183120515E2
:100BF0000430FE00FA308316D30083127820FE0BF7
:100C0000FA2D8316051183120511202E013083164B
:100C1000D0002530CF00B830D10083125324831682
:100C20008510831285140430FE00FA308316D30039
:100C300083127820FE0B152E8316851083128510E3
:100C4000FD0AA62D08000A108A140A158207B52D80
:100C5000D02DEB2D062E0B088316CD0083128B139F
:100C6000831603178C170C14000000000313CD1F0C
:100C70003C2E83128B1783160318752E83120317CD
:100C80000C087F3983160313CD00831203170D0858
:100C900083160313CE00831203170F088316031362
:100CA000CF004D08D2008312872383164E0883128B
:100CB00003178D00831603134F08831203178F0049
:100CC00003130B088316D00083128B1383160317AC
:100CD0008C170C14000000000313D01F722E831217
:100CE0008B178316CC0B752EA32E831203170C0DB6
:100CF0000E0D7F3983160313CD00831203170D08E1
:100D000083160313CE00831203170F0883160313F1
:100D1000CF004D08D2008312872383164E0883121A
:100D200003178D00831603134F08831203178F00D8
:100D30008D0A03198F0A031083160313CC0BA12EFF
:100D4000A32E83122B2E83120800203083164D1EF3
:100D50003030CE004C08F700CC1FB62EF709F70A4A
:100D60007708CC002D30CE00CD174D144C08D200A2
:100D70006430D3008312AF2177088316CC00303063
:100D80007807CF004C08D2000A30D3008312AF217D
:100D9000303077078316D10030307807D0004E0806
:100DA000F70030304F020319D92ECD14CD1B4D154D
:100DB000ED2E4E08CF002030CE0030305002031907
:100DC000E52E4D14CD1BCD14ED2E031D4D14031D2A
:100DD000ED2E4F08D0002030CF004D19F42ECD1845
:100DE000F92E4D18FE2E032F4E08D20083128723B2
:100DF00083164F08D2008312872383165008D2002F
:100E00008312872383165108D20083128723080098
:100E100064308316A100A200A300A400A500A600D0
:100E2000A700A800A900AA00AB00AC009030AD005C
:100E3000AE000B30AF000230B0008830B10001309E
:100E4000B2004A30B3000130B400B830B500013010
:100E5000B600EE30B7000130B800B830B90001304C
:100E6000BA009F30BB000130BC00D230BD00013061
:100E7000BE009F30BF000130C0008830C10001308B
:100E8000C2002630C3000130C4004A30C500013022
:100E9000C6008830C7000130C8008830C900013062
:100EA000CA008312352403308316D3000130D400E6
:100EB00083127323153003178D0000308F00031346
:100EC000C12308308316D3000230D4008312732369
:100ED0001B3003178D0000308F000310073083167E
:100EE0000313CC0083122B266A088316CC0018301B
:100EF000CD008312A5268316CB014B080D3C031CA5
:100F0000A22F03104B0DAF3E84008313840A000808
:100F1000CD0084030008CC00A1304B07840083136C
:100F20000008CE004D08D0004C08CF004E08D1007C
:100F30008312532432308316D30083127820831611
:100F4000CB0A7D2F0430CC00FA30D30083127820F6
:0A0F50008316CC0BA42F83120800B7
:101000008E013C308F00B0308E00FD01FE01831652
:10101000A001200883126602031C1029FE08031D8C
:1010200008297614760883168700831207183F284C
:1010300001308316D0000630CF00B830D1008A11BD
:10104000831253248A158316051083120514043065
:101050008316A100FA30D3008A11831278208A15F2
:101060008316A10B2A28051083120510463083161B
:1010700020078400831301308000FE008312F614E1
:10108000760883168700831287186E28013083162E
:10109000D0004A30CF00B830D1008A1183125324D7
:1010A0008A15831685118312851504308316A100D5
:1010B000FA30D3008A11831278208A158316A10B87
:1010C0005828851183128511463083162007840025
:1010D0008313023080000130FE00831276157608FB
:1010E00083168700831207199D2801308316D000CC
:1010F0005D30CF00B830D1008A11831253248A1595
:10110000831605118312051504308316A100FA30E9
:10111000D3008A11831278208A158316A10B8728A1
:1011200005118312051146308316200784008313AE
:10113000033080000130FE008312F6157608831616
:10114000870083128719CC2801308316D000253000
:10115000CF00B830D1008A11831253248A15831628
:1011600085108312851404308316A100FA30D30051
:101170008A11831278208A158316A10BB628851050
:1011800083128510463083162007840083130430B1
:1011900080000130FE0083120C1CD528FD0A8E0150
:1011A0003C308F00B0308E000C107D083E3C031D9B
:1011B0000729FE08031D0729E801E701E9018A1153
:1011C00008278A158A1135248A1501308316D30021
:1011D000D4008A11831273238A15203003178D00DF
:1011E00000308F008A110313C1238A15043083163F
:1011F000A100FA30D3008A11831278208A15831651
:10120000A10BF92801308312EB00FD0108290E28FB
:10121000FE016B0B0C2910298316A00A09288312E2
:101220008A150A12E92903081F398300E601E7013C
:10123000E801E901EA01EB01FF30F60083161F1413
:101240009F141F159F1107309C0083138312A00168
:10125000A1013F30EC000630ED005B30EE004F3076
:10126000EF006630F0006D30F1007D30F2000730A5
:10127000F3007F30F4006F30F50083161F149F14C5
:101280001F159F1183121F10B53090000030831678
:1012900085002F308700F600003086008800091096
:1012A00089100911FB018A1183125D298A15E7084B
:1012B000031D6C298A11C6218A158A11812A8A1573
:1012C0008A1190228A158A11C42A8A158A11232D1F
:1012D0008A15E601EA01EB01670B922B8A1135248E
:1012E0008A1501308316D300D4008A118312732328
:1012F0008A15283003178D0000308F008A110313E0
:10130000C1238A158A11A5258A1566080139031992
:10131000AB298A1135248A1501308316D300D400F5
:101320008A11831273238A15313003178D00003020
:101330008F008A110313C1238A158A11A5258A15E6
:101340000430FD00FA308316D3008A11831278200E
:101350008A15FD0BA22966080139031D912BEA0AA3
:101360008A11C6218A158A1135248A1502308316FE
:10137000D3000130D4008A11831273238A153930C7
:1013800003178D0000308F008A110313C1238A15C3
:1013900008308316D3000230D4008A1183127323DD
:1013A0008A15403003178D0000308F00031007307E
:1013B00083160313CC008A1183122B268A156A0820
:1013C0008316CC001830CD008A118312A5268A1509
:1013D0000028FB017B086602031C152A6B0BF12910
:1013E000152A26307B07840083130008FD00463051
:1013F0007B078400831300087D02031D012A01304E
:10140000E80026307B07840083130008FD00463087
:101410007B078400831300087D020319132A01301F
:10142000E900E801152AFB0AEA29680B6F2B8A11EB
:1014300035248A1501308316D300D4008A11831213
:1014400073238A15453003178D0000308F008A11F1
:101450000313C1238A1501306607013903196E2B66
:101460008A1135248A1501308316D300D4008A11DD
:10147000831273238A154D3003178D0000308F00BF
:101480008A110313C1238A1501308316D300023059
:10149000D4008A11831273238A15553003178D00E7
:1014A00000308F008A110313C1238A150430FD0018
:1014B000FA308316D3008A11831278208A15FD0B27
:1014C000582A8A1135248A1501308316D300D40096
:1014D0008A11831273238A155C3003178D00003044
:1014E0008F008A110313C1238A1501308316D3009C
:1014F0000230D4008A11831273238A1563300317D4
:101500008D0000308F008A110313C1238A15043027
:10151000FD00FA308316D3008A11831278208A15D1
:10152000FD0B892A8A1135248A1501308316D300D0
:10153000D4008A11831273238A15683003178D0033
:1015400000308F008A110313C1238A15FC01FC08A7
:10155000031D6D2B0230FD0096308316D3008A11D7
:10156000831278208A15FD0BAC2A76147608831630
:10157000870083120718E22A01308316D000063054
:10158000CF00B830D1008A11831253248A158316F4
:101590000510831205140430FD00FA308316D300C1
:1015A0008A11831278208A15FD0BCD2A8316051027
:1015B0008312051001306607263E84008313013034
:1015C0008000FC00F61476088316870083128718C3
:1015D000102B01308316D0004A30CF00B830D10034
:1015E0008A11831253248A15831685118312851557
:1015F0000430FD00FA308316D3008A11831278205C
:101600008A15FD0BFA2A8316851183128511013084
:101610006607263E84008313023080000130FC0000
:101620007615760883168700831207193E2B013042
:101630008316D0005D30CF00B830D1008A118312FC
:1016400053248A1583160511831205150430FD00F5
:10165000FA308316D3008A11831278208A15FD0B85
:10166000282B831605118312051101306607263ECB
:1016700084008313033080000130FC00F6157608E7
:1016800083168700831287196C2B01308316D000D4
:101690002530CF00B830D1008A11831253248A1527
:1016A00083168510831285140430FD00FA308316EA
:1016B000D3008A11831278208A15FD0B562B8316CE
:1016C00085108312851001306607263E840083133F
:1016D000043080000130FC00A72AFC01E801690BFE
:1016E0008E2BE801E701E9018A1108278A158A1182
:1016F00035248A1501308316D300D4008A11831251
:1017000073238A156F3003178D0000308F008A1104
:101710000313C1238A158A11A5258A158A119022DF
:081720008A15E60A572963004F
:02400E00733FFE
:00000001FF
;PIC16F877A
;CRC=1610  CREATED="21-ago-23 19:21"
