:1000000008308A00002800000C00D732EC31EF36AF
:100010006510F437A029E9366F3700015039E5390A
:100020007310533A6139F4100000C720CD22A02785
:10003000D622D21000005334EF3B69376710743476
:100040006510F332F1100001CE377710693AA73905
:10005000A029E9366F372100CE377710693AA739E2
:10006000A02CEF3A21005510E7377410693A203977
:10007000E933683A2100493AA739A03A7210F43AB4
:100080007237211D29004537F43272106110F630A5
:10009000EC3A6500F437A0306432203A6F107434C3
:1000A0006500F332F13A6537E33221005039E53922
:1000B00073106F37E510201D2900EB308400831387
:1000C0000008031970280630F800F701F70B6628BE
:1000D000F80B65287B30F700F70B6C28800B632842
:1000E00008000317120EF039F7000F30031308054C
:1000F00077048800000008140230F700F70B7E2810
:1001000081280000081008000808F700080E0F39C1
:10011000F800080083160810881008118312881050
:100120000F3083160805F038880083120815000088
:1001300008140000842078080317940003130810A3
:1001400000000814A328A4280000842078080317BE
:100150009300031308100F308316080588008312DC
:100160000317140EF700F030F70577081304F800B2
:1001700078089100911FBE2803139028831603135B
:100180006F18C5288312881083166F1CCA28831223
:10019000881483160000831208110000081003174A
:1001A000100E91000F309105110892000313712079
:1001B000031710080F3991009200031371200800F3
:1001C0002830F2000C30F3000130F4000630F50066
:1001D0000810881008110F308316080588000810D1
:1001E000881008110F30EB0083125D200130F10000
:1001F0007108033C031C0829033003179200031302
:10020000712005308316EB0083125D20F10AF82877
:100210000230031792000313712005308316EB00A0
:1002200083125D20F1017108033C031C2729723001
:100230007107840083130008F6008316EF01760827
:1002400083120317900003138A20F10A13298A15D9
:100250000A121E28EC016C081F3C031C3B292630A7
:100260006C0784008313800146306C07840083137D
:100270008001EC0A2B298A150A122428EC016C084B
:100280001F3C031CF82926306C07F800FA010318FC
:10029000FA0A7808ED007A08EE002508F200240832
:1002A000F1002308F0002208EF004130F600C630CC
:1002B000F5004E30F4006D30F30020308316A400BA
:1002C000A001A101A201A3017208FA007108F900BE
:1002D0007008F80083126F08F7000310771C80295C
:1002E00073088316A00774080318740FA107750814
:1002F0000318750FA20776080318760FA307831259
:100300008316A30CA20CA10CA00CFA0CF90CF80C8F
:10031000F70CA40B8C298E2983126D297708831280
:10032000EF0039306F07A2007808A30030300318BF
:100330003130A3077908A400003003180130A40766
:100340007A08A500003003180130A5072408F7003B
:100350002508F800F901FA017808F1007708F000A3
:100360007108F3007008F2007F30F500FF30F400F0
:10037000F801F901F701FA017508031DC229740893
:100380000319DC291030F6000310F20DF30DF70D00
:10039000FA0D75087A02031DCF2974087702031C31
:1003A000D8297408F702031CFA037508FA0203142B
:1003B000F80DF90DF60BC4297708F8007A08F90052
:1003C0007908F0007808EF000330EF05F001013004
:1003D0006F07F8007008FA000318FA0A6D08840025
:1003E00083136E188317780880000230EC073F29CA
:1003F0008A150A12272883166D0BFF29022A40301E
:10040000EE00032AEE0101306C02EE076E08803820
:10041000EF00EF016F0883120317900003138A2087
:10042000080083166A08073A83120319212A0B3A37
:100430000319282A063A0319362A023A03193E2AD2
:10044000472A01308316EC00ED008312FB21502A6D
:100450008316EF01013083120317900003138A20E3
:1004600002308316EB0083125D20502A0130831680
:10047000EC000230ED008312FB21502A8316EF01BD
:10048000103083120317900003138A20502A013082
:100490008316EF006A0883120317900003138A2063
:1004A00008000B088316E70083128B1383160317CB
:1004B0008C170C14000000000313E71F622A83123C
:1004C0008B178316831203170C087F390319C32A6D
:1004D00083160313E700831203170D088316031313
:1004E000E800831203170F0883160313E900670857
:1004F000EA008312112283166808831203178D0005
:10050000831603136908831203178F0003130B0864
:100510008316EA0083128B13831603178C170C14AF
:10052000000000000313EA1F982A83128B1783161A
:10053000831203170C0D0E0D7F390319C32A83167E
:100540000313E700831203170D0883160313E80053
:10055000831203170F0883160313E9006708EA00E4
:100560008312112283166808831203178D008316E5
:1005700003136908831203178F008D0A03198F0A6A
:100580000313512A031703130800043003178D00C7
:1005900000308F000313512232308316EB00831298
:1005A0005D20080003171D080319982BA9002108D6
:1005B0000319982BA902031CE22A7F30A90703180C
:1005C000982BE82A8130A902031C982B0319982B39
:1005D0002908F700F801F901FA01A8011E08A7008F
:1005E000A7171F08A6002008A5001930A900240895
:1005F000A50203180B2B0130A60203180B2BA70230
:1006000003180B2BA80203180B2BA80AA70AA60A8B
:100610002408A5073D2B2308A6020318262B01302A
:10062000A7020318262BA8020318262BA80AA70A3C
:100630002308A6072408A507031C3D2BA60A031DB3
:100640003D2BA70A031D3D2BA80A3D2B220880380D
:10065000A70203183C2B0130A80203183C2BA80A60
:1006600022088038A7072308A607031C1A2BA70A0D
:10067000031D1A2BA80A1A2B7A14A90B402B4B2BFB
:100680000310A50DA60DA70DA80D0310FA0DF90D69
:10069000F80DAA0DF72A2A1C532B0310F80CF90C9D
:1006A000FA0CAA0C562BF7030319982BAA1B7F2BC5
:1006B0000310A50DA60DA70DA80D2408A50203186B
:1006C0006B2B0130A60203186B2BA70203186B2BB0
:1006D000A802031C8E2B2308A6020318762B0130D8
:1006E000A7020318762BA802031C8E2B2208803841
:1006F000A70203187F2B0130A802031C8E2BFA0AD5
:10070000031D8E2BF90A031D8E2BF80A031D8E2B59
:10071000F70A0319982BF80CF90CFA0C1E08A9001B
:100720002208A906A91F962BF8179C2BF8139C2BBF
:10073000F701F801F901FA01031308008E30F70000
:1007400003171908F7021A08F9001B08F800F9172F
:10075000F7080319B62B0310F908031DB22BF8088C
:100760000319B62BF90CF80CF70BAB2B9A1FBD2B0A
:10077000F809F909F80A0319F90A03130800033004
:1007800003179A02031CCE2B1A308400831700082B
:100790000319CE2BCC2BCC2B800BCB2B03130800B7
:1007A0000317A00124309F0074309E0092309D00FA
:1007B000831603136F0883120317A4008316031311
:1007C0006E0883120317A300831603136D088312A8
:1007D0000317A200831603136C0883120317A100EA
:1007E0000313D2227A0803179C0079089B0078082B
:1007F0009A007708990003139E2379080317920043
:10080000780891000310120C9400110C93009A01C7
:10081000100899008E30F7001A08F8001908F9003E
:10082000FA01F808031D1E2C7908F800F9010830B8
:10083000F702F808031D1E2CF701262C0310F81BE5
:10084000252CF90DF80DF7031E2CF813831603134E
:100850006F08831203179C00831603136E0883121C
:1008600003179B00831603136D08831203179A0066
:10087000831603136C088312031799007A08A000EB
:1008800079089F0078089E0077089D0019080319D1
:10089000B62CA1001D080319B62CA1070318572C6C
:1008A0007F30A102031CB62C0319B62C5B2C8130BF
:1008B000A1070318B62C2108F700F801F901FA0185
:1008C0001A08A500A5171B08A4001C08A3001830CF
:1008D000A100A201231C842C2008FA07031C762CFB
:1008E000F90A031D762CF80A0319A2171F08F90745
:1008F000031C7D2CF80A0319A2171E089B009B17E6
:100900001B08F8070318A217A20DF80CF90CFA0C33
:10091000A50CA40CA30C0310A10B692C0130F70744
:100920000318B62CF81B9B2CA50DFA0DF90DF80D2C
:10093000F7030319B62CA51FAC2CFA0A031DAC2C27
:10094000F90A031DAC2CF80A031DAC2CF80CF90CA9
:10095000FA0CF70A0319B62C1A08A2001E08A20600
:10096000A21FB42CF817BA2CF813BA2CF701F8010F
:10097000F901FA017A089C0079089B0078089A002E
:10098000770899001C08A0001B089F001A089E0009
:1009900019089D00A401A3017A30A2008830A100AB
:1009A0000313D2227A0803179C0079089B00780869
:1009B0009A007708990003139E237908031796007D
:1009C000780895009801970118081602031C222D3B
:1009D000031DEE2C150817020318222D03136A12AB
:1009E0006A088316870083120716031714089900F4
:1009F000990A99030319022DFF309A000313BF23AC
:100A00000317F92C13089A000313BF236A126A080C
:100A10008316870083120712031714089900990A96
:100A200099030319192DFF309A000313BF230317ED
:100A3000102D13089A000313BF230317970A0319F5
:100A4000980AE42C0313080088308316A000243091
:100A5000A100C030A200A3018830A4004330A5004B
:100A6000C030A600A7018830A8007630A900C030A9
:100A7000AA00AB018830AC002430AD00C030AE001D
:100A8000AF018830B0004330B100C030B200B301D4
:100A90008830B4007630B500C030B600B701893078
:100AA000B8001630B900BA01BB018830BC007630FE
:100AB000BD00C030BE00BF0196308312EC00ED00D7
:100AC000EE00EF00F000F1002C30F2009630F30061
:100AD000C52201308316EC00ED008312FB210530A6
:100AE00003178D0000308F0003135122023083164C
:100AF000EC00ED008312FB210E3003178D00003057
:100B00008F0003135122F4017408073C031CB82D15
:100B1000740DF700F70DFC30F7057708A03E840050
:100B2000831300088316C000840A0008C100840AE9
:100B30000008C200840A0008C3006C3074078400F7
:100B400083130008C4004308EF004208EE00410888
:100B5000ED004008EC0044088312031790000313D3
:100B6000D02346308316EB0083125D20F40A842DD7
:100B700046308316EB0083125D20EA166A0883165E
:100B800087008312871AC62D0130E700E708031992
:100B9000832D8A150A122A28EC016C086602031CB0
:100BA000562E01306602FC3E0318542E043E572E8A
:100BB0008316EF01EE010330ED008730EC00D030FA
:100BC0008312031790000313D0238316051083129A
:100BD00005140430ED00FA308316EB0083125D201B
:100BE000ED0BEB2D8316051083120510542E831682
:100BF000EF01EE011630ED008930EC00D0308312A9
:100C0000031790000313D0238316851183128515D3
:100C10000430ED00FA308316EB0083125D20ED0BFB
:100C20000A2E8316851183128511542E8316EF0127
:100C3000C030EE007630ED008830EC00D03083120A
:100C4000031790000313D023831605118312051593
:100C50000430ED00FA308316EB0083125D20ED0BBB
:100C60002A2E8316051183120511542E8316EF01C7
:100C7000EE014430ED008830EC00D03083120317D1
:100C800090000313D023831685108312851404303B
:100C9000ED00FA308316EB0083125D20ED0B492E38
:100CA0008316851083128510EC0ACD2D08000A10DA
:100CB0008A140A158207D82DF72D162E362EEC0130
:100CC000ED016D086602031CAA2EEC08031DA72E79
:100CD0006A146A088316870083120718772E463035
:100CE0006D078400831301308000EC00A62EEA1407
:100CF0006A088316870083128718872E46306D078F
:100D000084008313023080000130EC00A62E6A15A7
:100D10006A088316870083120719972E46306D07DD
:100D200084008313033080000130EC00A62EEA1506
:100D30006A088316870083128719A62E46306D072E
:100D400084008313043080000130EC00652EEC0138
:100D5000ED0A612E8A150A127B2864308316A000E2
:100D6000A100A200A300A400A500A600A700A8005F
:100D7000A900AA00AB009030AC00AD008830AE00F6
:100D80000230AF00C030B000B1018730B200443053
:100D9000B300B401B5018730B6002530B700B80103
:100DA000B9018730BA005C30BB00BC01BD0187309F
:100DB000BE007730BF00C001C1018730C2005C3087
:100DC000C300C401C5018730C6004F30C700803062
:100DD000C800C9018730CA006930CB00CC01CD0101
:100DE0008730CE004F30CF008030D000D101873027
:100DF000D2004430D300D401D5018730D60013305F
:100E0000D700D801D9018730DA002530DB00DC01BA
:100E1000DD018730DE004430DF00E001E101873092
:100E2000E2004430E300E401E5018312C52203300F
:100E30008316EC000130ED008312FB2115300317FF
:100E40008D0000308F0003135122EC016C080D3C23
:100E5000031C602F6C0DF700F70DFC30F7057708C9
:100E6000AE3E840083130008ED00840A0008EE0003
:100E7000840A0008EF00840A0008F000A0306C0724
:100E8000840083130008F10070088316EF008312BA
:100E90006F088316EE0083126E088316ED0083122E
:100EA0006D088316EC00710883120317900003137A
:100EB000D02332308316EB0083125D20EC0A262FFC
:100EC0000430ED00FA308316EB0083125D20ED0B49
:080ED000622F8A150A129B290A
:1010000003081F398300E601E701E801E901FF3029
:10101000EA008313A001A101831383161F149F14F8
:101020001F159F1107309C008313003085002F305F
:1010300087008312EA00EB018A11E0288A15E7088D
:10104000031D2C288A112A298A158A113E298A15FE
:101050008A11242D8A15E601670B9D298A11C52264
:101060008A1501308316EC00ED008A118312FB21F2
:101070008A151B3003178D0000308F008A1103136F
:1010800051228A158A11CC258A156608013903195F
:1010900060288A11C5228A1501308316EC00ED0004
:1010A0008A118312FB218A15243003178D0000302A
:1010B0008F008A11031351228A158A11CC258A15B3
:1010C00066080139031D9C298A11C5228A15023040
:1010D0008316EC000130ED008A118312FB218A1582
:1010E0002C3003178D0000308F008A11031351221A
:1010F0008A158A115F2E8A15EB016B086602031CA4
:10110000A52826306B07840083130008EC004630C6
:101110006B078400831300086C02031D91280130C3
:10112000E80026306B07840083130008EC0046308B
:101130006B078400831300086C020319A328013095
:10114000E900E801A528EB0A7D28680B94298A119B
:10115000C5228A1501308316EC00ED008A11831236
:10116000FB218A15333003178D0000308F008A1160
:10117000031351228A150130660701390319932997
:101180008A11C5228A1501308316EC00ED008A1100
:101190008312FB218A153B3003178D0000308F002E
:1011A0008A11031351228A1501308316EC00023094
:1011B000ED008A118312FB218A15433003178D003D
:1011C00000308F008A11031351228A150830EC0079
:1011D000FA308316EB008A1183125D208A15EC0B1E
:1011E000E8288A11C5228A1501308316EC00ED002B
:1011F0008A118312FB218A154A3003178D000030B3
:101200008F008A11031351228A1501308316EC00D6
:101210000230ED008A118312FB218A155130031729
:101220008D0000308F008A11031351228A15083077
:10123000EC00FA308316EB008A1183125D208A15C8
:10124000EC0B19298A11C5228A1501308316EC008E
:10125000ED008A118312FB218A15563003178D0089
:1012600000308F008A11031351228A15831605144A
:101270008312051C7E29831685158312851D7E2900
:10128000831605158312051D7E2983168514831286
:10129000851C7E29831605148312051857290130F1
:1012A0006607463E84008313013080007D29831643
:1012B000851583128519642901306607463E84002E
:1012C0008313023080007D298316051583120519CA
:1012D000712901306607463E840083130330800085
:1012E0007D2983168514831285187D2901306607B0
:1012F000463E84008313043080003629013066079F
:10130000263EEC00ED010318ED0A01306607463E6B
:10131000840083130008EE006C08840083136D18AA
:1013200083176E088000E801690B9C29E801E7013A
:0E133000E9018A11AD2E8A15E60A1F28630016
:02400E00733FFE
:00000001FF
;PIC16F877A
;CRC=1718  CREATED="12-ago-23 16:46"
